{
  "contractName": "Marketplace",
  "abi": [
    {
      "inputs": [
        {
          "internalType": "contract IERC721",
          "name": "_nft",
          "type": "address"
        },
        {
          "internalType": "uint256",
          "name": "_feePercent",
          "type": "uint256"
        }
      ],
      "stateMutability": "nonpayable",
      "type": "constructor"
    },
    {
      "anonymous": false,
      "inputs": [
        {
          "indexed": false,
          "internalType": "uint256",
          "name": "tokenId",
          "type": "uint256"
        },
        {
          "indexed": false,
          "internalType": "uint256",
          "name": "price",
          "type": "uint256"
        },
        {
          "indexed": true,
          "internalType": "address",
          "name": "seller",
          "type": "address"
        },
        {
          "indexed": true,
          "internalType": "address",
          "name": "buyer",
          "type": "address"
        }
      ],
      "name": "Bought",
      "type": "event"
    },
    {
      "anonymous": false,
      "inputs": [
        {
          "indexed": true,
          "internalType": "address",
          "name": "seller",
          "type": "address"
        },
        {
          "indexed": false,
          "internalType": "uint256",
          "name": "tokenId",
          "type": "uint256"
        }
      ],
      "name": "CancelOffer",
      "type": "event"
    },
    {
      "anonymous": false,
      "inputs": [
        {
          "indexed": false,
          "internalType": "uint256",
          "name": "tokenId",
          "type": "uint256"
        },
        {
          "indexed": false,
          "internalType": "uint256",
          "name": "price",
          "type": "uint256"
        },
        {
          "indexed": true,
          "internalType": "address",
          "name": "seller",
          "type": "address"
        }
      ],
      "name": "Offered",
      "type": "event"
    },
    {
      "anonymous": false,
      "inputs": [
        {
          "indexed": true,
          "internalType": "address",
          "name": "seller",
          "type": "address"
        },
        {
          "indexed": false,
          "internalType": "uint256",
          "name": "tokenId",
          "type": "uint256"
        },
        {
          "indexed": false,
          "internalType": "uint256",
          "name": "newPrice",
          "type": "uint256"
        }
      ],
      "name": "UpdatePrice",
      "type": "event"
    },
    {
      "inputs": [],
      "name": "itemCount",
      "outputs": [
        {
          "internalType": "uint256",
          "name": "",
          "type": "uint256"
        }
      ],
      "stateMutability": "view",
      "type": "function",
      "constant": true
    },
    {
      "inputs": [
        {
          "internalType": "uint256",
          "name": "",
          "type": "uint256"
        }
      ],
      "name": "items",
      "outputs": [
        {
          "internalType": "uint256",
          "name": "tokenId",
          "type": "uint256"
        },
        {
          "internalType": "uint256",
          "name": "price",
          "type": "uint256"
        },
        {
          "internalType": "address payable",
          "name": "seller",
          "type": "address"
        },
        {
          "internalType": "bool",
          "name": "sold",
          "type": "bool"
        }
      ],
      "stateMutability": "view",
      "type": "function",
      "constant": true
    },
    {
      "inputs": [],
      "name": "ownerAddress",
      "outputs": [
        {
          "internalType": "address payable",
          "name": "",
          "type": "address"
        }
      ],
      "stateMutability": "view",
      "type": "function",
      "constant": true
    },
    {
      "inputs": [],
      "name": "tax",
      "outputs": [
        {
          "internalType": "uint256",
          "name": "",
          "type": "uint256"
        }
      ],
      "stateMutability": "view",
      "type": "function",
      "constant": true
    },
    {
      "inputs": [
        {
          "internalType": "uint256",
          "name": "_tokenId",
          "type": "uint256"
        },
        {
          "internalType": "uint256",
          "name": "_price",
          "type": "uint256"
        }
      ],
      "name": "makeItem",
      "outputs": [],
      "stateMutability": "nonpayable",
      "type": "function"
    },
    {
      "inputs": [
        {
          "internalType": "uint256",
          "name": "_tokenId",
          "type": "uint256"
        }
      ],
      "name": "cancelMakeItem",
      "outputs": [],
      "stateMutability": "nonpayable",
      "type": "function"
    },
    {
      "inputs": [
        {
          "internalType": "uint256",
          "name": "_tokenId",
          "type": "uint256"
        },
        {
          "internalType": "uint256",
          "name": "_newPrice",
          "type": "uint256"
        }
      ],
      "name": "updateNewPrice",
      "outputs": [],
      "stateMutability": "nonpayable",
      "type": "function"
    },
    {
      "inputs": [
        {
          "internalType": "uint256",
          "name": "_tokenId",
          "type": "uint256"
        }
      ],
      "name": "purchaseItem",
      "outputs": [],
      "stateMutability": "payable",
      "type": "function",
      "payable": true
    },
    {
      "inputs": [
        {
          "internalType": "uint256",
          "name": "_tokenId",
          "type": "uint256"
        }
      ],
      "name": "getTotalPrice",
      "outputs": [
        {
          "internalType": "uint256",
          "name": "",
          "type": "uint256"
        }
      ],
      "stateMutability": "view",
      "type": "function",
      "constant": true
    },
    {
      "inputs": [
        {
          "internalType": "uint256",
          "name": "_tokenId",
          "type": "uint256"
        }
      ],
      "name": "getItems",
      "outputs": [
        {
          "components": [
            {
              "internalType": "uint256",
              "name": "tokenId",
              "type": "uint256"
            },
            {
              "internalType": "uint256",
              "name": "price",
              "type": "uint256"
            },
            {
              "internalType": "address payable",
              "name": "seller",
              "type": "address"
            },
            {
              "internalType": "bool",
              "name": "sold",
              "type": "bool"
            }
          ],
          "internalType": "struct Marketplace.Item",
          "name": "",
          "type": "tuple"
        }
      ],
      "stateMutability": "view",
      "type": "function",
      "constant": true
    }
  ],
  "bytecode": "0x60c060405234801562000010575f80fd5b50604051620014603803806200146083398181016040528101906200003691906200016a565b3373ffffffffffffffffffffffffffffffffffffffff1660808173ffffffffffffffffffffffffffffffffffffffff16815250508160015f6101000a81548173ffffffffffffffffffffffffffffffffffffffff021916908373ffffffffffffffffffffffffffffffffffffffff1602179055508060a081815250505050620001af565b5f80fd5b5f73ffffffffffffffffffffffffffffffffffffffff82169050919050565b5f620000e982620000be565b9050919050565b5f620000fc82620000dd565b9050919050565b6200010e81620000f0565b811462000119575f80fd5b50565b5f815190506200012c8162000103565b92915050565b5f819050919050565b620001468162000132565b811462000151575f80fd5b50565b5f8151905062000164816200013b565b92915050565b5f8060408385031215620001835762000182620000ba565b5b5f62000192858286016200011c565b9250506020620001a58582860162000154565b9150509250929050565b60805160a051611281620001df5f395f81816107ce015261084d01525f81816107aa0152610a1001526112815ff3fe608060405260043610610090575f3560e01c80638f84aa09116100585780638f84aa091461017257806399c8d5561461019c578063bfb231d2146101c6578063ca7dd37514610205578063d38ea5bf1461024157610090565b80630a50e3be146100945780632d727af6146100bc5780636bfb0d01146100e457806377e1a35c1461010e578063796c5e9414610136575b5f80fd5b34801561009f575f80fd5b506100ba60048036038101906100b59190610c35565b61025d565b005b3480156100c7575f80fd5b506100e260048036038101906100dd9190610c73565b610443565b005b3480156100ef575f80fd5b506100f86105d0565b6040516101059190610cad565b60405180910390f35b348015610119575f80fd5b50610134600480360381019061012f9190610c35565b6105d5565b005b348015610141575f80fd5b5061015c60048036038101906101579190610c73565b6106fa565b6040516101699190610d81565b60405180910390f35b34801561017d575f80fd5b506101866107a8565b6040516101939190610da9565b60405180910390f35b3480156101a7575f80fd5b506101b06107cc565b6040516101bd9190610cad565b60405180910390f35b3480156101d1575f80fd5b506101ec60048036038101906101e79190610c73565b6107f0565b6040516101fc9493929190610dd1565b60405180910390f35b348015610210575f80fd5b5061022b60048036038101906102269190610c73565b610848565b6040516102389190610cad565b60405180910390f35b61025b60048036038101906102569190610c73565b6108a8565b005b5f811161029f576040517f08c379a000000000000000000000000000000000000000000000000000000000815260040161029690610e6e565b60405180910390fd5b60015f9054906101000a900473ffffffffffffffffffffffffffffffffffffffff1673ffffffffffffffffffffffffffffffffffffffff166323b872dd3330856040518463ffffffff1660e01b81526004016102fd93929190610eac565b5f604051808303815f87803b158015610314575f80fd5b505af1158015610326573d5f803e3d5ffd5b5050505060405180608001604052808381526020018281526020013373ffffffffffffffffffffffffffffffffffffffff1681526020015f151581525060025f8481526020019081526020015f205f820151815f0155602082015181600101556040820151816002015f6101000a81548173ffffffffffffffffffffffffffffffffffffffff021916908373ffffffffffffffffffffffffffffffffffffffff16021790555060608201518160020160146101000a81548160ff0219169083151502179055509050503373ffffffffffffffffffffffffffffffffffffffff167f1ab3864560512bcd762f59576711bc5e90d3ef93e9253b43cd6be191b4a5814e8383604051610437929190610ee1565b60405180910390a25050565b5f60025f8381526020019081526020015f206001015411610499576040517f08c379a000000000000000000000000000000000000000000000000000000000815260040161049090610f78565b60405180910390fd5b60015f9054906101000a900473ffffffffffffffffffffffffffffffffffffffff1673ffffffffffffffffffffffffffffffffffffffff166323b872dd3033846040518463ffffffff1660e01b81526004016104f793929190610eac565b5f604051808303815f87803b15801561050e575f80fd5b505af1158015610520573d5f803e3d5ffd5b5050505060025f8281526020019081526020015f205f8082015f9055600182015f9055600282015f6101000a81549073ffffffffffffffffffffffffffffffffffffffff02191690556002820160146101000a81549060ff021916905550503373ffffffffffffffffffffffffffffffffffffffff167fdea570bb3f4c454d84d0e1dd20f9c155901284eaaf86e5d61ea837d31629fb47826040516105c59190610cad565b60405180910390a250565b5f5481565b5f60025f8481526020019081526020015f20600101541161062b576040517f08c379a000000000000000000000000000000000000000000000000000000000815260040161062290610f78565b60405180910390fd5b5f8111801561064e575060025f8381526020019081526020015f20600101548114155b61068d576040517f08c379a000000000000000000000000000000000000000000000000000000000815260040161068490611006565b60405180910390fd5b8060025f8481526020019081526020015f20600101819055503373ffffffffffffffffffffffffffffffffffffffff167f7c3bda8adcb9df1edd0059da351d966538bcc99f067c0770872170ac97fb688783836040516106ee929190610ee1565b60405180910390a25050565b610702610bc2565b60025f8381526020019081526020015f206040518060800160405290815f820154815260200160018201548152602001600282015f9054906101000a900473ffffffffffffffffffffffffffffffffffffffff1673ffffffffffffffffffffffffffffffffffffffff1673ffffffffffffffffffffffffffffffffffffffff1681526020016002820160149054906101000a900460ff1615151515815250509050919050565b7f000000000000000000000000000000000000000000000000000000000000000081565b7f000000000000000000000000000000000000000000000000000000000000000081565b6002602052805f5260405f205f91509050805f015490806001015490806002015f9054906101000a900473ffffffffffffffffffffffffffffffffffffffff16908060020160149054906101000a900460ff16905084565b5f60647f000000000000000000000000000000000000000000000000000000000000000060646108789190611051565b60025f8581526020019081526020015f20600101546108979190611084565b6108a191906110f2565b9050919050565b5f6108b282610848565b90505f60025f8481526020019081526020015f2090505f81600101541161090e576040517f08c379a000000000000000000000000000000000000000000000000000000000815260040161090590610f78565b60405180910390fd5b81341015610951576040517f08c379a000000000000000000000000000000000000000000000000000000000815260040161094890611192565b60405180910390fd5b8060020160149054906101000a900460ff16156109a3576040517f08c379a000000000000000000000000000000000000000000000000000000000815260040161099a906111fa565b60405180910390fd5b806002015f9054906101000a900473ffffffffffffffffffffffffffffffffffffffff1673ffffffffffffffffffffffffffffffffffffffff166108fc826001015490811502906040515f60405180830381858888f19350505050158015610a0d573d5f803e3d5ffd5b507f000000000000000000000000000000000000000000000000000000000000000073ffffffffffffffffffffffffffffffffffffffff166108fc826001015484610a589190611218565b90811502906040515f60405180830381858888f19350505050158015610a80573d5f803e3d5ffd5b5060018160020160146101000a81548160ff02191690831515021790555060015f9054906101000a900473ffffffffffffffffffffffffffffffffffffffff1673ffffffffffffffffffffffffffffffffffffffff166323b872dd3033845f01546040518463ffffffff1660e01b8152600401610aff93929190610eac565b5f604051808303815f87803b158015610b16575f80fd5b505af1158015610b28573d5f803e3d5ffd5b505050503373ffffffffffffffffffffffffffffffffffffffff16816002015f9054906101000a900473ffffffffffffffffffffffffffffffffffffffff1673ffffffffffffffffffffffffffffffffffffffff167f4ebd6ef39c1235e69ba7dedf24ad43bdeb57deb289d98473668070d6ca9b685e835f01548460010154604051610bb5929190610ee1565b60405180910390a3505050565b60405180608001604052805f81526020015f81526020015f73ffffffffffffffffffffffffffffffffffffffff1681526020015f151581525090565b5f80fd5b5f819050919050565b610c1481610c02565b8114610c1e575f80fd5b50565b5f81359050610c2f81610c0b565b92915050565b5f8060408385031215610c4b57610c4a610bfe565b5b5f610c5885828601610c21565b9250506020610c6985828601610c21565b9150509250929050565b5f60208284031215610c8857610c87610bfe565b5b5f610c9584828501610c21565b91505092915050565b610ca781610c02565b82525050565b5f602082019050610cc05f830184610c9e565b92915050565b610ccf81610c02565b82525050565b5f73ffffffffffffffffffffffffffffffffffffffff82169050919050565b5f610cfe82610cd5565b9050919050565b610d0e81610cf4565b82525050565b5f8115159050919050565b610d2881610d14565b82525050565b608082015f820151610d425f850182610cc6565b506020820151610d556020850182610cc6565b506040820151610d686040850182610d05565b506060820151610d7b6060850182610d1f565b50505050565b5f608082019050610d945f830184610d2e565b92915050565b610da381610cf4565b82525050565b5f602082019050610dbc5f830184610d9a565b92915050565b610dcb81610d14565b82525050565b5f608082019050610de45f830187610c9e565b610df16020830186610c9e565b610dfe6040830185610d9a565b610e0b6060830184610dc2565b95945050505050565b5f82825260208201905092915050565b7f5072696365206d7573742062652067726561746572207468616e207a65726f005f82015250565b5f610e58601f83610e14565b9150610e6382610e24565b602082019050919050565b5f6020820190508181035f830152610e8581610e4c565b9050919050565b5f610e9682610cd5565b9050919050565b610ea681610e8c565b82525050565b5f606082019050610ebf5f830186610e9d565b610ecc6020830185610e9d565b610ed96040830184610c9e565b949350505050565b5f604082019050610ef45f830185610c9e565b610f016020830184610c9e565b9392505050565b7f4974656d20646f65736e2774206578697374206f6e206d61726b6574706c61635f8201527f6500000000000000000000000000000000000000000000000000000000000000602082015250565b5f610f62602183610e14565b9150610f6d82610f08565b604082019050919050565b5f6020820190508181035f830152610f8f81610f56565b9050919050565b7f4e6577207072696365206d7573742067726561746572207468616e203020616e5f8201527f6420646966666572656e742066726f6d206f6c64207072696365000000000000602082015250565b5f610ff0603a83610e14565b9150610ffb82610f96565b604082019050919050565b5f6020820190508181035f83015261101d81610fe4565b9050919050565b7f4e487b71000000000000000000000000000000000000000000000000000000005f52601160045260245ffd5b5f61105b82610c02565b915061106683610c02565b925082820190508082111561107e5761107d611024565b5b92915050565b5f61108e82610c02565b915061109983610c02565b92508282026110a781610c02565b915082820484148315176110be576110bd611024565b5b5092915050565b7f4e487b71000000000000000000000000000000000000000000000000000000005f52601260045260245ffd5b5f6110fc82610c02565b915061110783610c02565b925082611117576111166110c5565b5b828204905092915050565b7f4e6f7420656e6f75676820657468657220746f20636f766572206974656d20705f8201527f7269636520616e64206d61726b65742066656500000000000000000000000000602082015250565b5f61117c603383610e14565b915061118782611122565b604082019050919050565b5f6020820190508181035f8301526111a981611170565b9050919050565b7f4974656d20616c726561647920736f6c640000000000000000000000000000005f82015250565b5f6111e4601183610e14565b91506111ef826111b0565b602082019050919050565b5f6020820190508181035f830152611211816111d8565b9050919050565b5f61122282610c02565b915061122d83610c02565b925082820390508181111561124557611244611024565b5b9291505056fea26469706673582212205e3e60631dc0b65af425f1e57e9f32a4ff18202ef5e3f100fa25828a7280503864736f6c63430008150033",
  "immutableReferences": {
    "3868": [
      {
        "length": 32,
        "start": 1962
      },
      {
        "length": 32,
        "start": 2576
      }
    ],
    "3870": [
      {
        "length": 32,
        "start": 1998
      },
      {
        "length": 32,
        "start": 2125
      }
    ]
  },
  "source": "// SPDX-License-Identifier: MIT\npragma solidity ^0.8.20;\n\nimport \"@openzeppelin/contracts/token/ERC721/IERC721.sol\";\n\ncontract Marketplace {\n\n    // Variables\n    address payable public immutable ownerAddress; // the account that receives fees\n    uint public immutable tax; // the fee percentage on sales \n    uint public itemCount; \n    \n    IERC721 nft;\n    \n    struct Item {\n        uint256 tokenId;\n        uint256 price;\n        address payable seller;\n        bool sold;\n    }\n\n    // tokenId -> Item\n    mapping(uint256 => Item) public items;\n\n    event Offered(uint256 tokenId, uint256 price, address indexed seller);\n    event Bought(uint256 tokenId, uint256 price, address indexed seller, address indexed buyer);\n    event CancelOffer(address indexed seller, uint256 tokenId);\n    event UpdatePrice(address indexed seller, uint256 tokenId, uint256 newPrice);\n\n    constructor(IERC721 _nft, uint256 _feePercent) {\n        ownerAddress = payable(msg.sender);\n        nft = _nft;\n        tax = _feePercent;\n    }\n\n    // Make item to offer on the marketplace\n    function makeItem(uint256 _tokenId, uint256 _price) external{\n        require(_price > 0, \"Price must be greater than zero\");\n        // transfer nft from seller account to this smart contract\n        nft.transferFrom(msg.sender, address(this), _tokenId);\n        // add new item to items mapping\n        items[_tokenId] = Item (_tokenId, _price, payable(msg.sender), false);\n        // emit Offered event\n        emit Offered(_tokenId, _price, msg.sender);\n    }\n\n    // Cancel make item to offer on the marketplace\n    function cancelMakeItem(uint256 _tokenId) external {\n        require(items[_tokenId].price > 0, \"Item doesn't exist on marketplace\");\n        // transfer nft from this smart contract to seller account\n        nft.transferFrom(address(this), msg.sender, _tokenId);\n        // delete nft in items mapping\n        delete(items[_tokenId]);\n        // emit Cancel Offer event\n        emit CancelOffer(msg.sender, _tokenId);\n    }\n\n    // Update new price for item\n    function updateNewPrice(uint256 _tokenId, uint256 _newPrice) external {\n        require(items[_tokenId].price > 0, \"Item doesn't exist on marketplace\");\n        require(_newPrice > 0 && _newPrice != items[_tokenId].price, \"New price must greater than 0 and different from old price\");\n\n        items[_tokenId].price = _newPrice;\n        emit UpdatePrice(msg.sender, _tokenId, _newPrice);\n    }\n\n    // Buy item\n    function purchaseItem(uint256 _tokenId) external payable{\n        uint256 _totalPrice = getTotalPrice(_tokenId);\n        Item storage item = items[_tokenId];\n        require(item.price > 0, \"Item doesn't exist on marketplace\");\n        require(msg.value >= _totalPrice, \"Not enough ether to cover item price and market fee\");\n        require(!item.sold, \"Item already sold\");\n        // pay seller and feeAccount\n        item.seller.transfer(item.price);\n        ownerAddress.transfer(_totalPrice - item.price);\n        // update item to sold\n        item.sold = true;\n        // transfer nft to buyer\n        nft.transferFrom(address(this), msg.sender, item.tokenId);\n        // emit Bought event\n        emit Bought(item.tokenId, item.price, item.seller, msg.sender);\n    }\n\n    // Get price include tax\n    function getTotalPrice(uint256 _tokenId) view public returns(uint256){\n        return((items[_tokenId].price*(100 + tax))/100);\n    }\n\n    // Get information of item have token ID: _tokenId\n    function getItems(uint256 _tokenId)external view returns (Item memory){\n        return items[_tokenId];\n    }\n}\n",
  "sourcePath": "S:\\StudyCode\\Blockchain\\FinalProject\\SmartContract\\contracts\\Marketplace.sol",
  "compiler": {
    "name": "solc",
    "version": "0.8.21+commit.d9974bed.Emscripten.clang"
  },
  "schemaVersion": "3.4.16",
  "updatedAt": "2023-12-16T19:58:37.490Z",
  "networkType": "ethereum",
  "devdoc": {
    "kind": "dev",
    "methods": {},
    "version": 1
  },
  "userdoc": {
    "kind": "user",
    "methods": {},
    "version": 1
  }
}