{
  "contractName": "AxICToken",
  "abi": [
    {
      "inputs": [
        {
          "internalType": "address",
          "name": "initialOwner",
          "type": "address"
        }
      ],
      "stateMutability": "nonpayable",
      "type": "constructor"
    },
    {
      "inputs": [],
      "name": "ERC721EnumerableForbiddenBatchMint",
      "type": "error"
    },
    {
      "inputs": [
        {
          "internalType": "address",
          "name": "sender",
          "type": "address"
        },
        {
          "internalType": "uint256",
          "name": "tokenId",
          "type": "uint256"
        },
        {
          "internalType": "address",
          "name": "owner",
          "type": "address"
        }
      ],
      "name": "ERC721IncorrectOwner",
      "type": "error"
    },
    {
      "inputs": [
        {
          "internalType": "address",
          "name": "operator",
          "type": "address"
        },
        {
          "internalType": "uint256",
          "name": "tokenId",
          "type": "uint256"
        }
      ],
      "name": "ERC721InsufficientApproval",
      "type": "error"
    },
    {
      "inputs": [
        {
          "internalType": "address",
          "name": "approver",
          "type": "address"
        }
      ],
      "name": "ERC721InvalidApprover",
      "type": "error"
    },
    {
      "inputs": [
        {
          "internalType": "address",
          "name": "operator",
          "type": "address"
        }
      ],
      "name": "ERC721InvalidOperator",
      "type": "error"
    },
    {
      "inputs": [
        {
          "internalType": "address",
          "name": "owner",
          "type": "address"
        }
      ],
      "name": "ERC721InvalidOwner",
      "type": "error"
    },
    {
      "inputs": [
        {
          "internalType": "address",
          "name": "receiver",
          "type": "address"
        }
      ],
      "name": "ERC721InvalidReceiver",
      "type": "error"
    },
    {
      "inputs": [
        {
          "internalType": "address",
          "name": "sender",
          "type": "address"
        }
      ],
      "name": "ERC721InvalidSender",
      "type": "error"
    },
    {
      "inputs": [
        {
          "internalType": "uint256",
          "name": "tokenId",
          "type": "uint256"
        }
      ],
      "name": "ERC721NonexistentToken",
      "type": "error"
    },
    {
      "inputs": [
        {
          "internalType": "address",
          "name": "owner",
          "type": "address"
        },
        {
          "internalType": "uint256",
          "name": "index",
          "type": "uint256"
        }
      ],
      "name": "ERC721OutOfBoundsIndex",
      "type": "error"
    },
    {
      "inputs": [],
      "name": "EnforcedPause",
      "type": "error"
    },
    {
      "inputs": [],
      "name": "ExpectedPause",
      "type": "error"
    },
    {
      "inputs": [
        {
          "internalType": "address",
          "name": "owner",
          "type": "address"
        }
      ],
      "name": "OwnableInvalidOwner",
      "type": "error"
    },
    {
      "inputs": [
        {
          "internalType": "address",
          "name": "account",
          "type": "address"
        }
      ],
      "name": "OwnableUnauthorizedAccount",
      "type": "error"
    },
    {
      "anonymous": false,
      "inputs": [
        {
          "indexed": true,
          "internalType": "address",
          "name": "owner",
          "type": "address"
        },
        {
          "indexed": true,
          "internalType": "address",
          "name": "approved",
          "type": "address"
        },
        {
          "indexed": true,
          "internalType": "uint256",
          "name": "tokenId",
          "type": "uint256"
        }
      ],
      "name": "Approval",
      "type": "event"
    },
    {
      "anonymous": false,
      "inputs": [
        {
          "indexed": true,
          "internalType": "address",
          "name": "owner",
          "type": "address"
        },
        {
          "indexed": true,
          "internalType": "address",
          "name": "operator",
          "type": "address"
        },
        {
          "indexed": false,
          "internalType": "bool",
          "name": "approved",
          "type": "bool"
        }
      ],
      "name": "ApprovalForAll",
      "type": "event"
    },
    {
      "anonymous": false,
      "inputs": [
        {
          "indexed": false,
          "internalType": "uint256",
          "name": "_fromTokenId",
          "type": "uint256"
        },
        {
          "indexed": false,
          "internalType": "uint256",
          "name": "_toTokenId",
          "type": "uint256"
        }
      ],
      "name": "BatchMetadataUpdate",
      "type": "event"
    },
    {
      "anonymous": false,
      "inputs": [
        {
          "indexed": false,
          "internalType": "uint256",
          "name": "_tokenId",
          "type": "uint256"
        }
      ],
      "name": "MetadataUpdate",
      "type": "event"
    },
    {
      "anonymous": false,
      "inputs": [
        {
          "indexed": true,
          "internalType": "address",
          "name": "previousOwner",
          "type": "address"
        },
        {
          "indexed": true,
          "internalType": "address",
          "name": "newOwner",
          "type": "address"
        }
      ],
      "name": "OwnershipTransferred",
      "type": "event"
    },
    {
      "anonymous": false,
      "inputs": [
        {
          "indexed": false,
          "internalType": "address",
          "name": "account",
          "type": "address"
        }
      ],
      "name": "Paused",
      "type": "event"
    },
    {
      "anonymous": false,
      "inputs": [
        {
          "indexed": true,
          "internalType": "address",
          "name": "from",
          "type": "address"
        },
        {
          "indexed": true,
          "internalType": "address",
          "name": "to",
          "type": "address"
        },
        {
          "indexed": true,
          "internalType": "uint256",
          "name": "tokenId",
          "type": "uint256"
        }
      ],
      "name": "Transfer",
      "type": "event"
    },
    {
      "anonymous": false,
      "inputs": [
        {
          "indexed": false,
          "internalType": "address",
          "name": "account",
          "type": "address"
        }
      ],
      "name": "Unpaused",
      "type": "event"
    },
    {
      "inputs": [
        {
          "internalType": "address",
          "name": "to",
          "type": "address"
        },
        {
          "internalType": "uint256",
          "name": "tokenId",
          "type": "uint256"
        }
      ],
      "name": "approve",
      "outputs": [],
      "stateMutability": "nonpayable",
      "type": "function"
    },
    {
      "inputs": [
        {
          "internalType": "address",
          "name": "owner",
          "type": "address"
        }
      ],
      "name": "balanceOf",
      "outputs": [
        {
          "internalType": "uint256",
          "name": "",
          "type": "uint256"
        }
      ],
      "stateMutability": "view",
      "type": "function"
    },
    {
      "inputs": [
        {
          "internalType": "uint256",
          "name": "tokenId",
          "type": "uint256"
        }
      ],
      "name": "getApproved",
      "outputs": [
        {
          "internalType": "address",
          "name": "",
          "type": "address"
        }
      ],
      "stateMutability": "view",
      "type": "function"
    },
    {
      "inputs": [
        {
          "internalType": "address",
          "name": "owner",
          "type": "address"
        },
        {
          "internalType": "address",
          "name": "operator",
          "type": "address"
        }
      ],
      "name": "isApprovedForAll",
      "outputs": [
        {
          "internalType": "bool",
          "name": "",
          "type": "bool"
        }
      ],
      "stateMutability": "view",
      "type": "function"
    },
    {
      "inputs": [],
      "name": "name",
      "outputs": [
        {
          "internalType": "string",
          "name": "",
          "type": "string"
        }
      ],
      "stateMutability": "view",
      "type": "function"
    },
    {
      "inputs": [],
      "name": "owner",
      "outputs": [
        {
          "internalType": "address",
          "name": "",
          "type": "address"
        }
      ],
      "stateMutability": "view",
      "type": "function"
    },
    {
      "inputs": [
        {
          "internalType": "uint256",
          "name": "tokenId",
          "type": "uint256"
        }
      ],
      "name": "ownerOf",
      "outputs": [
        {
          "internalType": "address",
          "name": "",
          "type": "address"
        }
      ],
      "stateMutability": "view",
      "type": "function"
    },
    {
      "inputs": [],
      "name": "paused",
      "outputs": [
        {
          "internalType": "bool",
          "name": "",
          "type": "bool"
        }
      ],
      "stateMutability": "view",
      "type": "function"
    },
    {
      "inputs": [],
      "name": "renounceOwnership",
      "outputs": [],
      "stateMutability": "nonpayable",
      "type": "function"
    },
    {
      "inputs": [
        {
          "internalType": "address",
          "name": "from",
          "type": "address"
        },
        {
          "internalType": "address",
          "name": "to",
          "type": "address"
        },
        {
          "internalType": "uint256",
          "name": "tokenId",
          "type": "uint256"
        }
      ],
      "name": "safeTransferFrom",
      "outputs": [],
      "stateMutability": "nonpayable",
      "type": "function"
    },
    {
      "inputs": [
        {
          "internalType": "address",
          "name": "from",
          "type": "address"
        },
        {
          "internalType": "address",
          "name": "to",
          "type": "address"
        },
        {
          "internalType": "uint256",
          "name": "tokenId",
          "type": "uint256"
        },
        {
          "internalType": "bytes",
          "name": "data",
          "type": "bytes"
        }
      ],
      "name": "safeTransferFrom",
      "outputs": [],
      "stateMutability": "nonpayable",
      "type": "function"
    },
    {
      "inputs": [
        {
          "internalType": "address",
          "name": "operator",
          "type": "address"
        },
        {
          "internalType": "bool",
          "name": "approved",
          "type": "bool"
        }
      ],
      "name": "setApprovalForAll",
      "outputs": [],
      "stateMutability": "nonpayable",
      "type": "function"
    },
    {
      "inputs": [],
      "name": "symbol",
      "outputs": [
        {
          "internalType": "string",
          "name": "",
          "type": "string"
        }
      ],
      "stateMutability": "view",
      "type": "function"
    },
    {
      "inputs": [
        {
          "internalType": "uint256",
          "name": "index",
          "type": "uint256"
        }
      ],
      "name": "tokenByIndex",
      "outputs": [
        {
          "internalType": "uint256",
          "name": "",
          "type": "uint256"
        }
      ],
      "stateMutability": "view",
      "type": "function"
    },
    {
      "inputs": [
        {
          "internalType": "address",
          "name": "owner",
          "type": "address"
        },
        {
          "internalType": "uint256",
          "name": "index",
          "type": "uint256"
        }
      ],
      "name": "tokenOfOwnerByIndex",
      "outputs": [
        {
          "internalType": "uint256",
          "name": "",
          "type": "uint256"
        }
      ],
      "stateMutability": "view",
      "type": "function"
    },
    {
      "inputs": [],
      "name": "totalSupply",
      "outputs": [
        {
          "internalType": "uint256",
          "name": "",
          "type": "uint256"
        }
      ],
      "stateMutability": "view",
      "type": "function"
    },
    {
      "inputs": [
        {
          "internalType": "address",
          "name": "from",
          "type": "address"
        },
        {
          "internalType": "address",
          "name": "to",
          "type": "address"
        },
        {
          "internalType": "uint256",
          "name": "tokenId",
          "type": "uint256"
        }
      ],
      "name": "transferFrom",
      "outputs": [],
      "stateMutability": "nonpayable",
      "type": "function"
    },
    {
      "inputs": [
        {
          "internalType": "address",
          "name": "newOwner",
          "type": "address"
        }
      ],
      "name": "transferOwnership",
      "outputs": [],
      "stateMutability": "nonpayable",
      "type": "function"
    },
    {
      "inputs": [
        {
          "internalType": "address",
          "name": "to",
          "type": "address"
        },
        {
          "internalType": "string",
          "name": "uri",
          "type": "string"
        }
      ],
      "name": "safeMint",
      "outputs": [],
      "stateMutability": "payable",
      "type": "function"
    },
    {
      "inputs": [
        {
          "internalType": "address",
          "name": "owner",
          "type": "address"
        }
      ],
      "name": "getAllToken",
      "outputs": [
        {
          "internalType": "uint256[]",
          "name": "",
          "type": "uint256[]"
        }
      ],
      "stateMutability": "view",
      "type": "function"
    },
    {
      "inputs": [],
      "name": "pause",
      "outputs": [],
      "stateMutability": "nonpayable",
      "type": "function"
    },
    {
      "inputs": [],
      "name": "unpause",
      "outputs": [],
      "stateMutability": "nonpayable",
      "type": "function"
    },
    {
      "inputs": [
        {
          "internalType": "uint256",
          "name": "tokenId",
          "type": "uint256"
        }
      ],
      "name": "tokenURI",
      "outputs": [
        {
          "internalType": "string",
          "name": "",
          "type": "string"
        }
      ],
      "stateMutability": "view",
      "type": "function"
    },
    {
      "inputs": [
        {
          "internalType": "bytes4",
          "name": "interfaceId",
          "type": "bytes4"
        }
      ],
      "name": "supportsInterface",
      "outputs": [
        {
          "internalType": "bool",
          "name": "",
          "type": "bool"
        }
      ],
      "stateMutability": "view",
      "type": "function"
    }
  ],
  "bytecode": "0x608060405234801562000010575f80fd5b506040516200381538038062003815833981810160405281019062000036919062000297565b806040518060400160405280600981526020017f41784943546f6b656e00000000000000000000000000000000000000000000008152506040518060400160405280600381526020017f4178490000000000000000000000000000000000000000000000000000000000815250815f9081620000b391906200052b565b508060019081620000c591906200052b565b5050505f600b5f6101000a81548160ff0219169083151502179055505f73ffffffffffffffffffffffffffffffffffffffff168173ffffffffffffffffffffffffffffffffffffffff160362000154575f6040517f1e4fbdf70000000000000000000000000000000000000000000000000000000081526004016200014b919062000620565b60405180910390fd5b62000165816200016d60201b60201c565b50506200063b565b5f600b60019054906101000a900473ffffffffffffffffffffffffffffffffffffffff16905081600b60016101000a81548173ffffffffffffffffffffffffffffffffffffffff021916908373ffffffffffffffffffffffffffffffffffffffff1602179055508173ffffffffffffffffffffffffffffffffffffffff168173ffffffffffffffffffffffffffffffffffffffff167f8be0079c531659141344cd1fd0a4f28419497f9722a3daafe3b4186f6b6457e060405160405180910390a35050565b5f80fd5b5f73ffffffffffffffffffffffffffffffffffffffff82169050919050565b5f620002618262000236565b9050919050565b620002738162000255565b81146200027e575f80fd5b50565b5f81519050620002918162000268565b92915050565b5f60208284031215620002af57620002ae62000232565b5b5f620002be8482850162000281565b91505092915050565b5f81519050919050565b7f4e487b71000000000000000000000000000000000000000000000000000000005f52604160045260245ffd5b7f4e487b71000000000000000000000000000000000000000000000000000000005f52602260045260245ffd5b5f60028204905060018216806200034357607f821691505b602082108103620003595762000358620002fe565b5b50919050565b5f819050815f5260205f209050919050565b5f6020601f8301049050919050565b5f82821b905092915050565b5f60088302620003bd7fffffffffffffffffffffffffffffffffffffffffffffffffffffffffffffffff8262000380565b620003c9868362000380565b95508019841693508086168417925050509392505050565b5f819050919050565b5f819050919050565b5f620004136200040d6200040784620003e1565b620003ea565b620003e1565b9050919050565b5f819050919050565b6200042e83620003f3565b620004466200043d826200041a565b8484546200038c565b825550505050565b5f90565b6200045c6200044e565b6200046981848462000423565b505050565b5b818110156200049057620004845f8262000452565b6001810190506200046f565b5050565b601f821115620004df57620004a9816200035f565b620004b48462000371565b81016020851015620004c4578190505b620004dc620004d38562000371565b8301826200046e565b50505b505050565b5f82821c905092915050565b5f620005015f1984600802620004e4565b1980831691505092915050565b5f6200051b8383620004f0565b9150826002028217905092915050565b6200053682620002c7565b67ffffffffffffffff811115620005525762000551620002d1565b5b6200055e82546200032b565b6200056b82828562000494565b5f60209050601f831160018114620005a1575f84156200058c578287015190505b6200059885826200050e565b86555062000607565b601f198416620005b1866200035f565b5f5b82811015620005da57848901518255600182019150602085019450602081019050620005b3565b86831015620005fa5784890151620005f6601f891682620004f0565b8355505b6001600288020188555050505b505050505050565b6200061a8162000255565b82525050565b5f602082019050620006355f8301846200060f565b92915050565b6131cc80620006495f395ff3fe60806040526004361061014a575f3560e01c80636352211e116100b5578063a22cb4651161006e578063a22cb4651461047e578063b88d4fde146104a6578063c87b56dd146104ce578063d204c45e1461050a578063e985e9c514610526578063f2fde38b146105625761014a565b80636352211e1461038657806370a08231146103c2578063715018a6146103fe5780638456cb59146104145780638da5cb5b1461042a57806395d89b41146104545761014a565b806328fb77451161010757806328fb77451461026a5780632f745c59146102a65780633f4ba83a146102e257806342842e0e146102f85780634f6ccce7146103205780635c975abb1461035c5761014a565b806301ffc9a71461014e57806306fdde031461018a578063081812fc146101b4578063095ea7b3146101f057806318160ddd1461021857806323b872dd14610242575b5f80fd5b348015610159575f80fd5b50610174600480360381019061016f91906124e2565b61058a565b6040516101819190612527565b60405180910390f35b348015610195575f80fd5b5061019e61059b565b6040516101ab91906125ca565b60405180910390f35b3480156101bf575f80fd5b506101da60048036038101906101d5919061261d565b61062a565b6040516101e79190612687565b60405180910390f35b3480156101fb575f80fd5b50610216600480360381019061021191906126ca565b610645565b005b348015610223575f80fd5b5061022c61065b565b6040516102399190612717565b60405180910390f35b34801561024d575f80fd5b5061026860048036038101906102639190612730565b610667565b005b348015610275575f80fd5b50610290600480360381019061028b9190612780565b610766565b60405161029d9190612862565b60405180910390f35b3480156102b1575f80fd5b506102cc60048036038101906102c791906126ca565b610881565b6040516102d99190612717565b60405180910390f35b3480156102ed575f80fd5b506102f6610925565b005b348015610303575f80fd5b5061031e60048036038101906103199190612730565b610937565b005b34801561032b575f80fd5b506103466004803603810190610341919061261d565b610956565b6040516103539190612717565b60405180910390f35b348015610367575f80fd5b506103706109c8565b60405161037d9190612527565b60405180910390f35b348015610391575f80fd5b506103ac60048036038101906103a7919061261d565b6109dd565b6040516103b99190612687565b60405180910390f35b3480156103cd575f80fd5b506103e860048036038101906103e39190612780565b6109ee565b6040516103f59190612717565b60405180910390f35b348015610409575f80fd5b50610412610aa4565b005b34801561041f575f80fd5b50610428610ab7565b005b348015610435575f80fd5b5061043e610ac9565b60405161044b9190612687565b60405180910390f35b34801561045f575f80fd5b50610468610af2565b60405161047591906125ca565b60405180910390f35b348015610489575f80fd5b506104a4600480360381019061049f91906128ac565b610b82565b005b3480156104b1575f80fd5b506104cc60048036038101906104c79190612a16565b610b98565b005b3480156104d9575f80fd5b506104f460048036038101906104ef919061261d565b610bb5565b60405161050191906125ca565b60405180910390f35b610524600480360381019061051f9190612b34565b610bc7565b005b348015610531575f80fd5b5061054c60048036038101906105479190612b8e565b610bf9565b6040516105599190612527565b60405180910390f35b34801561056d575f80fd5b5061058860048036038101906105839190612780565b610c87565b005b5f61059482610d0b565b9050919050565b60605f80546105a990612bf9565b80601f01602080910402602001604051908101604052809291908181526020018280546105d590612bf9565b80156106205780601f106105f757610100808354040283529160200191610620565b820191905f5260205f20905b81548152906001019060200180831161060357829003601f168201915b5050505050905090565b5f61063482610d6b565b5061063e82610df1565b9050919050565b6106578282610652610e2a565b610e31565b5050565b5f600880549050905090565b5f73ffffffffffffffffffffffffffffffffffffffff168273ffffffffffffffffffffffffffffffffffffffff16036106d7575f6040517f64a0ae920000000000000000000000000000000000000000000000000000000081526004016106ce9190612687565b60405180910390fd5b5f6106ea83836106e5610e2a565b610e43565b90508373ffffffffffffffffffffffffffffffffffffffff168173ffffffffffffffffffffffffffffffffffffffff1614610760578382826040517f64283d7b00000000000000000000000000000000000000000000000000000000815260040161075793929190612c29565b60405180910390fd5b50505050565b60605f610772836109ee565b90505f8167ffffffffffffffff81111561078f5761078e6128f2565b5b6040519080825280602002602001820160405280156107bd5781602001602082028036833780820191505090505b5090505f5b82811015610876573073ffffffffffffffffffffffffffffffffffffffff16632f745c5986836040518363ffffffff1660e01b8152600401610805929190612c5e565b602060405180830381865afa158015610820573d5f803e3d5ffd5b505050506040513d601f19601f820116820180604052508101906108449190612c99565b82828151811061085757610856612cc4565b5b602002602001018181525050808061086e90612d1e565b9150506107c2565b508092505050919050565b5f61088b836109ee565b82106108d05782826040517fa57d13dc0000000000000000000000000000000000000000000000000000000081526004016108c7929190612c5e565b60405180910390fd5b60065f8473ffffffffffffffffffffffffffffffffffffffff1673ffffffffffffffffffffffffffffffffffffffff1681526020019081526020015f205f8381526020019081526020015f2054905092915050565b61092d610e58565b610935610edf565b565b61095183838360405180602001604052805f815250610b98565b505050565b5f61095f61065b565b82106109a4575f826040517fa57d13dc00000000000000000000000000000000000000000000000000000000815260040161099b929190612c5e565b60405180910390fd5b600882815481106109b8576109b7612cc4565b5b905f5260205f2001549050919050565b5f600b5f9054906101000a900460ff16905090565b5f6109e782610d6b565b9050919050565b5f8073ffffffffffffffffffffffffffffffffffffffff168273ffffffffffffffffffffffffffffffffffffffff1603610a5f575f6040517f89c62b64000000000000000000000000000000000000000000000000000000008152600401610a569190612687565b60405180910390fd5b60035f8373ffffffffffffffffffffffffffffffffffffffff1673ffffffffffffffffffffffffffffffffffffffff1681526020019081526020015f20549050919050565b610aac610e58565b610ab55f610f40565b565b610abf610e58565b610ac7611005565b565b5f600b60019054906101000a900473ffffffffffffffffffffffffffffffffffffffff16905090565b606060018054610b0190612bf9565b80601f0160208091040260200160405190810160405280929190818152602001828054610b2d90612bf9565b8015610b785780601f10610b4f57610100808354040283529160200191610b78565b820191905f5260205f20905b815481529060010190602001808311610b5b57829003601f168201915b5050505050905090565b610b94610b8d610e2a565b8383611067565b5050565b610ba3848484610667565b610baf848484846111d0565b50505050565b6060610bc082611382565b9050919050565b5f600c5f815480929190610bda90612d1e565b919050559050610bea838261148d565b610bf481836114aa565b505050565b5f60055f8473ffffffffffffffffffffffffffffffffffffffff1673ffffffffffffffffffffffffffffffffffffffff1681526020019081526020015f205f8373ffffffffffffffffffffffffffffffffffffffff1673ffffffffffffffffffffffffffffffffffffffff1681526020019081526020015f205f9054906101000a900460ff16905092915050565b610c8f610e58565b5f73ffffffffffffffffffffffffffffffffffffffff168173ffffffffffffffffffffffffffffffffffffffff1603610cff575f6040517f1e4fbdf7000000000000000000000000000000000000000000000000000000008152600401610cf69190612687565b60405180910390fd5b610d0881610f40565b50565b5f634906490660e01b7bffffffffffffffffffffffffffffffffffffffffffffffffffffffff1916827bffffffffffffffffffffffffffffffffffffffffffffffffffffffff19161480610d645750610d6382611504565b5b9050919050565b5f80610d768361157d565b90505f73ffffffffffffffffffffffffffffffffffffffff168173ffffffffffffffffffffffffffffffffffffffff1603610de857826040517f7e273289000000000000000000000000000000000000000000000000000000008152600401610ddf9190612717565b60405180910390fd5b80915050919050565b5f60045f8381526020019081526020015f205f9054906101000a900473ffffffffffffffffffffffffffffffffffffffff169050919050565b5f33905090565b610e3e83838360016115b6565b505050565b5f610e4f848484611775565b90509392505050565b610e60610e2a565b73ffffffffffffffffffffffffffffffffffffffff16610e7e610ac9565b73ffffffffffffffffffffffffffffffffffffffff1614610edd57610ea1610e2a565b6040517f118cdaa7000000000000000000000000000000000000000000000000000000008152600401610ed49190612687565b60405180910390fd5b565b610ee7611792565b5f600b5f6101000a81548160ff0219169083151502179055507f5db9ee0a495bf2e6ff9c91a7834c1ba4fdd244a5e8aa4e537bd38aeae4b073aa610f29610e2a565b604051610f369190612687565b60405180910390a1565b5f600b60019054906101000a900473ffffffffffffffffffffffffffffffffffffffff16905081600b60016101000a81548173ffffffffffffffffffffffffffffffffffffffff021916908373ffffffffffffffffffffffffffffffffffffffff1602179055508173ffffffffffffffffffffffffffffffffffffffff168173ffffffffffffffffffffffffffffffffffffffff167f8be0079c531659141344cd1fd0a4f28419497f9722a3daafe3b4186f6b6457e060405160405180910390a35050565b61100d6117d2565b6001600b5f6101000a81548160ff0219169083151502179055507f62e78cea01bee320cd4e420270b5ea74000d11b0c9f74754ebdbfc544b05a258611050610e2a565b60405161105d9190612687565b60405180910390a1565b5f73ffffffffffffffffffffffffffffffffffffffff168273ffffffffffffffffffffffffffffffffffffffff16036110d757816040517f5b08ba180000000000000000000000000000000000000000000000000000000081526004016110ce9190612687565b60405180910390fd5b8060055f8573ffffffffffffffffffffffffffffffffffffffff1673ffffffffffffffffffffffffffffffffffffffff1681526020019081526020015f205f8473ffffffffffffffffffffffffffffffffffffffff1673ffffffffffffffffffffffffffffffffffffffff1681526020019081526020015f205f6101000a81548160ff0219169083151502179055508173ffffffffffffffffffffffffffffffffffffffff168373ffffffffffffffffffffffffffffffffffffffff167f17307eab39ab6107e8899845ad3d59bd9653f200f220920489ca2b5937696c31836040516111c39190612527565b60405180910390a3505050565b5f8373ffffffffffffffffffffffffffffffffffffffff163b111561137c578273ffffffffffffffffffffffffffffffffffffffff1663150b7a02611213610e2a565b8685856040518563ffffffff1660e01b81526004016112359493929190612db7565b6020604051808303815f875af192505050801561127057506040513d601f19601f8201168201806040525081019061126d9190612e15565b60015b6112f1573d805f811461129e576040519150601f19603f3d011682016040523d82523d5f602084013e6112a3565b606091505b505f8151036112e957836040517f64a0ae920000000000000000000000000000000000000000000000000000000081526004016112e09190612687565b60405180910390fd5b805181602001fd5b63150b7a0260e01b7bffffffffffffffffffffffffffffffffffffffffffffffffffffffff1916817bffffffffffffffffffffffffffffffffffffffffffffffffffffffff19161461137a57836040517f64a0ae920000000000000000000000000000000000000000000000000000000081526004016113719190612687565b60405180910390fd5b505b50505050565b606061138d82610d6b565b505f600a5f8481526020019081526020015f2080546113ab90612bf9565b80601f01602080910402602001604051908101604052809291908181526020018280546113d790612bf9565b80156114225780601f106113f957610100808354040283529160200191611422565b820191905f5260205f20905b81548152906001019060200180831161140557829003601f168201915b505050505090505f611432611813565b90505f815103611446578192505050611488565b5f8251111561147a578082604051602001611462929190612e7a565b60405160208183030381529060405292505050611488565b61148384611829565b925050505b919050565b6114a6828260405180602001604052805f81525061188f565b5050565b80600a5f8481526020019081526020015f2090816114c8919061303a565b507ff8e1a15aba9398e019f0b49df1a4fde98ee17ae345cb5f6b5e2c27f5033e8ce7826040516114f89190612717565b60405180910390a15050565b5f7f780e9d63000000000000000000000000000000000000000000000000000000007bffffffffffffffffffffffffffffffffffffffffffffffffffffffff1916827bffffffffffffffffffffffffffffffffffffffffffffffffffffffff191614806115765750611575826118aa565b5b9050919050565b5f60025f8381526020019081526020015f205f9054906101000a900473ffffffffffffffffffffffffffffffffffffffff169050919050565b80806115ee57505f73ffffffffffffffffffffffffffffffffffffffff168273ffffffffffffffffffffffffffffffffffffffff1614155b15611720575f6115fd84610d6b565b90505f73ffffffffffffffffffffffffffffffffffffffff168373ffffffffffffffffffffffffffffffffffffffff161415801561166757508273ffffffffffffffffffffffffffffffffffffffff168173ffffffffffffffffffffffffffffffffffffffff1614155b801561167a57506116788184610bf9565b155b156116bc57826040517fa9fbf51f0000000000000000000000000000000000000000000000000000000081526004016116b39190612687565b60405180910390fd5b811561171e57838573ffffffffffffffffffffffffffffffffffffffff168273ffffffffffffffffffffffffffffffffffffffff167f8c5be1e5ebec7d5bd14f71427d1e84f3dd0314c0f7b2291e5b200ac8c7c3b92560405160405180910390a45b505b8360045f8581526020019081526020015f205f6101000a81548173ffffffffffffffffffffffffffffffffffffffff021916908373ffffffffffffffffffffffffffffffffffffffff16021790555050505050565b5f61177e6117d2565b61178984848461198b565b90509392505050565b61179a6109c8565b6117d0576040517f8dfc202b00000000000000000000000000000000000000000000000000000000815260040160405180910390fd5b565b6117da6109c8565b15611811576040517fd93c066500000000000000000000000000000000000000000000000000000000815260040160405180910390fd5b565b606060405180602001604052805f815250905090565b606061183482610d6b565b505f61183e611813565b90505f81511161185c5760405180602001604052805f815250611887565b8061186684611aa5565b604051602001611877929190612e7a565b6040516020818303038152906040525b915050919050565b6118998383611b6f565b6118a55f8484846111d0565b505050565b5f7f80ac58cd000000000000000000000000000000000000000000000000000000007bffffffffffffffffffffffffffffffffffffffffffffffffffffffff1916827bffffffffffffffffffffffffffffffffffffffffffffffffffffffff1916148061197457507f5b5e139f000000000000000000000000000000000000000000000000000000007bffffffffffffffffffffffffffffffffffffffffffffffffffffffff1916827bffffffffffffffffffffffffffffffffffffffffffffffffffffffff1916145b80611984575061198382611c62565b5b9050919050565b5f80611998858585611ccb565b90505f73ffffffffffffffffffffffffffffffffffffffff168173ffffffffffffffffffffffffffffffffffffffff16036119db576119d684611ed6565b611a1a565b8473ffffffffffffffffffffffffffffffffffffffff168173ffffffffffffffffffffffffffffffffffffffff1614611a1957611a188185611f1a565b5b5b5f73ffffffffffffffffffffffffffffffffffffffff168573ffffffffffffffffffffffffffffffffffffffff1603611a5b57611a5684612064565b611a9a565b8473ffffffffffffffffffffffffffffffffffffffff168173ffffffffffffffffffffffffffffffffffffffff1614611a9957611a988585612124565b5b5b809150509392505050565b60605f6001611ab3846121a8565b0190505f8167ffffffffffffffff811115611ad157611ad06128f2565b5b6040519080825280601f01601f191660200182016040528015611b035781602001600182028036833780820191505090505b5090505f82602001820190505b600115611b64578080600190039150507f3031323334353637383961626364656600000000000000000000000000000000600a86061a8153600a8581611b5957611b58613109565b5b0494505f8503611b10575b819350505050919050565b5f73ffffffffffffffffffffffffffffffffffffffff168273ffffffffffffffffffffffffffffffffffffffff1603611bdf575f6040517f64a0ae92000000000000000000000000000000000000000000000000000000008152600401611bd69190612687565b60405180910390fd5b5f611beb83835f610e43565b90505f73ffffffffffffffffffffffffffffffffffffffff168173ffffffffffffffffffffffffffffffffffffffff1614611c5d575f6040517f73c6ac6e000000000000000000000000000000000000000000000000000000008152600401611c549190612687565b60405180910390fd5b505050565b5f7f01ffc9a7000000000000000000000000000000000000000000000000000000007bffffffffffffffffffffffffffffffffffffffffffffffffffffffff1916827bffffffffffffffffffffffffffffffffffffffffffffffffffffffff1916149050919050565b5f80611cd68461157d565b90505f73ffffffffffffffffffffffffffffffffffffffff168373ffffffffffffffffffffffffffffffffffffffff1614611d1757611d168184866122f9565b5b5f73ffffffffffffffffffffffffffffffffffffffff168173ffffffffffffffffffffffffffffffffffffffff1614611da257611d565f855f806115b6565b600160035f8373ffffffffffffffffffffffffffffffffffffffff1673ffffffffffffffffffffffffffffffffffffffff1681526020019081526020015f205f82825403925050819055505b5f73ffffffffffffffffffffffffffffffffffffffff168573ffffffffffffffffffffffffffffffffffffffff1614611e2157600160035f8773ffffffffffffffffffffffffffffffffffffffff1673ffffffffffffffffffffffffffffffffffffffff1681526020019081526020015f205f82825401925050819055505b8460025f8681526020019081526020015f205f6101000a81548173ffffffffffffffffffffffffffffffffffffffff021916908373ffffffffffffffffffffffffffffffffffffffff160217905550838573ffffffffffffffffffffffffffffffffffffffff168273ffffffffffffffffffffffffffffffffffffffff167fddf252ad1be2c89b69c2b068fc378daa952ba7f163c4a11628f55a4df523b3ef60405160405180910390a4809150509392505050565b60088054905060095f8381526020019081526020015f2081905550600881908060018154018082558091505060019003905f5260205f20015f909190919091505550565b5f611f24836109ee565b90505f60075f8481526020019081526020015f20549050818114611ffb575f60065f8673ffffffffffffffffffffffffffffffffffffffff1673ffffffffffffffffffffffffffffffffffffffff1681526020019081526020015f205f8481526020019081526020015f205490508060065f8773ffffffffffffffffffffffffffffffffffffffff1673ffffffffffffffffffffffffffffffffffffffff1681526020019081526020015f205f8481526020019081526020015f20819055508160075f8381526020019081526020015f2081905550505b60075f8481526020019081526020015f205f905560065f8573ffffffffffffffffffffffffffffffffffffffff1673ffffffffffffffffffffffffffffffffffffffff1681526020019081526020015f205f8381526020019081526020015f205f905550505050565b5f60016008805490506120779190613136565b90505f60095f8481526020019081526020015f205490505f600883815481106120a3576120a2612cc4565b5b905f5260205f200154905080600883815481106120c3576120c2612cc4565b5b905f5260205f2001819055508160095f8381526020019081526020015f208190555060095f8581526020019081526020015f205f9055600880548061210b5761210a613169565b5b600190038181905f5260205f20015f9055905550505050565b5f6001612130846109ee565b61213a9190613136565b90508160065f8573ffffffffffffffffffffffffffffffffffffffff1673ffffffffffffffffffffffffffffffffffffffff1681526020019081526020015f205f8381526020019081526020015f20819055508060075f8481526020019081526020015f2081905550505050565b5f805f90507a184f03e93ff9f4daa797ed6e38ed64bf6a1f0100000000000000008310612204577a184f03e93ff9f4daa797ed6e38ed64bf6a1f01000000000000000083816121fa576121f9613109565b5b0492506040810190505b6d04ee2d6d415b85acef81000000008310612241576d04ee2d6d415b85acef8100000000838161223757612236613109565b5b0492506020810190505b662386f26fc10000831061227057662386f26fc10000838161226657612265613109565b5b0492506010810190505b6305f5e1008310612299576305f5e100838161228f5761228e613109565b5b0492506008810190505b61271083106122be5761271083816122b4576122b3613109565b5b0492506004810190505b606483106122e157606483816122d7576122d6613109565b5b0492506002810190505b600a83106122f0576001810190505b80915050919050565b6123048383836123bc565b6123b7575f73ffffffffffffffffffffffffffffffffffffffff168373ffffffffffffffffffffffffffffffffffffffff160361237857806040517f7e27328900000000000000000000000000000000000000000000000000000000815260040161236f9190612717565b60405180910390fd5b81816040517f177e802f0000000000000000000000000000000000000000000000000000000081526004016123ae929190612c5e565b60405180910390fd5b505050565b5f8073ffffffffffffffffffffffffffffffffffffffff168373ffffffffffffffffffffffffffffffffffffffff161415801561247357508273ffffffffffffffffffffffffffffffffffffffff168473ffffffffffffffffffffffffffffffffffffffff16148061243457506124338484610bf9565b5b8061247257508273ffffffffffffffffffffffffffffffffffffffff1661245a83610df1565b73ffffffffffffffffffffffffffffffffffffffff16145b5b90509392505050565b5f604051905090565b5f80fd5b5f80fd5b5f7fffffffff0000000000000000000000000000000000000000000000000000000082169050919050565b6124c18161248d565b81146124cb575f80fd5b50565b5f813590506124dc816124b8565b92915050565b5f602082840312156124f7576124f6612485565b5b5f612504848285016124ce565b91505092915050565b5f8115159050919050565b6125218161250d565b82525050565b5f60208201905061253a5f830184612518565b92915050565b5f81519050919050565b5f82825260208201905092915050565b5f5b8381101561257757808201518184015260208101905061255c565b5f8484015250505050565b5f601f19601f8301169050919050565b5f61259c82612540565b6125a6818561254a565b93506125b681856020860161255a565b6125bf81612582565b840191505092915050565b5f6020820190508181035f8301526125e28184612592565b905092915050565b5f819050919050565b6125fc816125ea565b8114612606575f80fd5b50565b5f81359050612617816125f3565b92915050565b5f6020828403121561263257612631612485565b5b5f61263f84828501612609565b91505092915050565b5f73ffffffffffffffffffffffffffffffffffffffff82169050919050565b5f61267182612648565b9050919050565b61268181612667565b82525050565b5f60208201905061269a5f830184612678565b92915050565b6126a981612667565b81146126b3575f80fd5b50565b5f813590506126c4816126a0565b92915050565b5f80604083850312156126e0576126df612485565b5b5f6126ed858286016126b6565b92505060206126fe85828601612609565b9150509250929050565b612711816125ea565b82525050565b5f60208201905061272a5f830184612708565b92915050565b5f805f6060848603121561274757612746612485565b5b5f612754868287016126b6565b9350506020612765868287016126b6565b925050604061277686828701612609565b9150509250925092565b5f6020828403121561279557612794612485565b5b5f6127a2848285016126b6565b91505092915050565b5f81519050919050565b5f82825260208201905092915050565b5f819050602082019050919050565b6127dd816125ea565b82525050565b5f6127ee83836127d4565b60208301905092915050565b5f602082019050919050565b5f612810826127ab565b61281a81856127b5565b9350612825836127c5565b805f5b8381101561285557815161283c88826127e3565b9750612847836127fa565b925050600181019050612828565b5085935050505092915050565b5f6020820190508181035f83015261287a8184612806565b905092915050565b61288b8161250d565b8114612895575f80fd5b50565b5f813590506128a681612882565b92915050565b5f80604083850312156128c2576128c1612485565b5b5f6128cf858286016126b6565b92505060206128e085828601612898565b9150509250929050565b5f80fd5b5f80fd5b7f4e487b71000000000000000000000000000000000000000000000000000000005f52604160045260245ffd5b61292882612582565b810181811067ffffffffffffffff82111715612947576129466128f2565b5b80604052505050565b5f61295961247c565b9050612965828261291f565b919050565b5f67ffffffffffffffff821115612984576129836128f2565b5b61298d82612582565b9050602081019050919050565b828183375f83830152505050565b5f6129ba6129b58461296a565b612950565b9050828152602081018484840111156129d6576129d56128ee565b5b6129e184828561299a565b509392505050565b5f82601f8301126129fd576129fc6128ea565b5b8135612a0d8482602086016129a8565b91505092915050565b5f805f8060808587031215612a2e57612a2d612485565b5b5f612a3b878288016126b6565b9450506020612a4c878288016126b6565b9350506040612a5d87828801612609565b925050606085013567ffffffffffffffff811115612a7e57612a7d612489565b5b612a8a878288016129e9565b91505092959194509250565b5f67ffffffffffffffff821115612ab057612aaf6128f2565b5b612ab982612582565b9050602081019050919050565b5f612ad8612ad384612a96565b612950565b905082815260208101848484011115612af457612af36128ee565b5b612aff84828561299a565b509392505050565b5f82601f830112612b1b57612b1a6128ea565b5b8135612b2b848260208601612ac6565b91505092915050565b5f8060408385031215612b4a57612b49612485565b5b5f612b57858286016126b6565b925050602083013567ffffffffffffffff811115612b7857612b77612489565b5b612b8485828601612b07565b9150509250929050565b5f8060408385031215612ba457612ba3612485565b5b5f612bb1858286016126b6565b9250506020612bc2858286016126b6565b9150509250929050565b7f4e487b71000000000000000000000000000000000000000000000000000000005f52602260045260245ffd5b5f6002820490506001821680612c1057607f821691505b602082108103612c2357612c22612bcc565b5b50919050565b5f606082019050612c3c5f830186612678565b612c496020830185612708565b612c566040830184612678565b949350505050565b5f604082019050612c715f830185612678565b612c7e6020830184612708565b9392505050565b5f81519050612c93816125f3565b92915050565b5f60208284031215612cae57612cad612485565b5b5f612cbb84828501612c85565b91505092915050565b7f4e487b71000000000000000000000000000000000000000000000000000000005f52603260045260245ffd5b7f4e487b71000000000000000000000000000000000000000000000000000000005f52601160045260245ffd5b5f612d28826125ea565b91507fffffffffffffffffffffffffffffffffffffffffffffffffffffffffffffffff8203612d5a57612d59612cf1565b5b600182019050919050565b5f81519050919050565b5f82825260208201905092915050565b5f612d8982612d65565b612d938185612d6f565b9350612da381856020860161255a565b612dac81612582565b840191505092915050565b5f608082019050612dca5f830187612678565b612dd76020830186612678565b612de46040830185612708565b8181036060830152612df68184612d7f565b905095945050505050565b5f81519050612e0f816124b8565b92915050565b5f60208284031215612e2a57612e29612485565b5b5f612e3784828501612e01565b91505092915050565b5f81905092915050565b5f612e5482612540565b612e5e8185612e40565b9350612e6e81856020860161255a565b80840191505092915050565b5f612e858285612e4a565b9150612e918284612e4a565b91508190509392505050565b5f819050815f5260205f209050919050565b5f6020601f8301049050919050565b5f82821b905092915050565b5f60088302612ef97fffffffffffffffffffffffffffffffffffffffffffffffffffffffffffffffff82612ebe565b612f038683612ebe565b95508019841693508086168417925050509392505050565b5f819050919050565b5f612f3e612f39612f34846125ea565b612f1b565b6125ea565b9050919050565b5f819050919050565b612f5783612f24565b612f6b612f6382612f45565b848454612eca565b825550505050565b5f90565b612f7f612f73565b612f8a818484612f4e565b505050565b5b81811015612fad57612fa25f82612f77565b600181019050612f90565b5050565b601f821115612ff257612fc381612e9d565b612fcc84612eaf565b81016020851015612fdb578190505b612fef612fe785612eaf565b830182612f8f565b50505b505050565b5f82821c905092915050565b5f6130125f1984600802612ff7565b1980831691505092915050565b5f61302a8383613003565b9150826002028217905092915050565b61304382612540565b67ffffffffffffffff81111561305c5761305b6128f2565b5b6130668254612bf9565b613071828285612fb1565b5f60209050601f8311600181146130a2575f8415613090578287015190505b61309a858261301f565b865550613101565b601f1984166130b086612e9d565b5f5b828110156130d7578489015182556001820191506020850194506020810190506130b2565b868310156130f457848901516130f0601f891682613003565b8355505b6001600288020188555050505b505050505050565b7f4e487b71000000000000000000000000000000000000000000000000000000005f52601260045260245ffd5b5f613140826125ea565b915061314b836125ea565b925082820390508181111561316357613162612cf1565b5b92915050565b7f4e487b71000000000000000000000000000000000000000000000000000000005f52603160045260245ffdfea26469706673582212202e317484c2968ae251641ba12c632f4fa62beac45d840881dc4f7d345315a95c64736f6c63430008150033",
  "immutableReferences": {},
  "source": "// SPDX-License-Identifier: MIT\r\npragma solidity ^0.8.20;\r\n\r\nimport \"@openzeppelin/contracts/token/ERC721/ERC721.sol\";\r\nimport \"@openzeppelin/contracts/token/ERC721/extensions/ERC721Enumerable.sol\";\r\nimport \"@openzeppelin/contracts/token/ERC721/extensions/ERC721URIStorage.sol\";\r\nimport \"@openzeppelin/contracts/token/ERC721/extensions/ERC721Pausable.sol\";\r\nimport \"@openzeppelin/contracts/access/Ownable.sol\";\r\n\r\ncontract AxICToken is ERC721, ERC721Enumerable, ERC721URIStorage, ERC721Pausable, Ownable {\r\n    uint256 private _nextTokenId;\r\n\r\n    \r\n\r\n    constructor(address initialOwner)\r\n        ERC721(\"AxICToken\", \"AxI\")\r\n        Ownable(initialOwner)\r\n    {}\r\n\r\n    function safeMint(address to, string memory uri) public payable{\r\n        uint256 tokenId = _nextTokenId++;\r\n        _safeMint(to, tokenId);\r\n        _setTokenURI(tokenId, uri);\r\n    }\r\n\r\n    function getAllToken(address owner) external view returns (uint256[] memory){\r\n        uint256 total = balanceOf(owner);\r\n        uint256[] memory ids = new uint256[](total);\r\n        for (uint256 i = 0; i < total; i++){\r\n            ids[i] = (IERC721Enumerable(this).tokenOfOwnerByIndex(owner, i));\r\n        }\r\n        return ids;\r\n    }\r\n    \r\n    function pause() public onlyOwner {\r\n        _pause();\r\n    }\r\n\r\n    function unpause() public onlyOwner {\r\n        _unpause();\r\n    }\r\n    // The following functions are overrides required by Solidity.\r\n\r\n    function _update(address to, uint256 tokenId, address auth) internal override(ERC721, ERC721Enumerable, ERC721Pausable) returns (address)\r\n    {\r\n        return super._update(to, tokenId, auth);\r\n    }\r\n\r\n    function _increaseBalance(address account, uint128 value) internal override(ERC721, ERC721Enumerable)\r\n    {\r\n        super._increaseBalance(account, value);\r\n    }\r\n\r\n    function tokenURI(uint256 tokenId) public view override(ERC721, ERC721URIStorage) returns (string memory)\r\n    {\r\n        return super.tokenURI(tokenId);\r\n    }\r\n\r\n    function supportsInterface(bytes4 interfaceId) public view override(ERC721, ERC721Enumerable, ERC721URIStorage) returns (bool)\r\n    {\r\n        return super.supportsInterface(interfaceId);\r\n    }\r\n}",
  "sourcePath": "S:\\StudyCode\\Blockchain\\FinalProject\\SmartContract\\contracts\\AxICToken.sol",
  "compiler": {
    "name": "solc",
    "version": "0.8.21+commit.d9974bed.Emscripten.clang"
  },
  "schemaVersion": "3.4.16",
  "updatedAt": "2023-12-23T21:23:06.686Z",
  "devdoc": {
    "errors": {
      "ERC721EnumerableForbiddenBatchMint()": [
        {
          "details": "Batch mint is not allowed."
        }
      ],
      "ERC721IncorrectOwner(address,uint256,address)": [
        {
          "details": "Indicates an error related to the ownership over a particular token. Used in transfers.",
          "params": {
            "owner": "Address of the current owner of a token.",
            "sender": "Address whose tokens are being transferred.",
            "tokenId": "Identifier number of a token."
          }
        }
      ],
      "ERC721InsufficientApproval(address,uint256)": [
        {
          "details": "Indicates a failure with the `operator`s approval. Used in transfers.",
          "params": {
            "operator": "Address that may be allowed to operate on tokens without being their owner.",
            "tokenId": "Identifier number of a token."
          }
        }
      ],
      "ERC721InvalidApprover(address)": [
        {
          "details": "Indicates a failure with the `approver` of a token to be approved. Used in approvals.",
          "params": {
            "approver": "Address initiating an approval operation."
          }
        }
      ],
      "ERC721InvalidOperator(address)": [
        {
          "details": "Indicates a failure with the `operator` to be approved. Used in approvals.",
          "params": {
            "operator": "Address that may be allowed to operate on tokens without being their owner."
          }
        }
      ],
      "ERC721InvalidOwner(address)": [
        {
          "details": "Indicates that an address can't be an owner. For example, `address(0)` is a forbidden owner in EIP-20. Used in balance queries.",
          "params": {
            "owner": "Address of the current owner of a token."
          }
        }
      ],
      "ERC721InvalidReceiver(address)": [
        {
          "details": "Indicates a failure with the token `receiver`. Used in transfers.",
          "params": {
            "receiver": "Address to which tokens are being transferred."
          }
        }
      ],
      "ERC721InvalidSender(address)": [
        {
          "details": "Indicates a failure with the token `sender`. Used in transfers.",
          "params": {
            "sender": "Address whose tokens are being transferred."
          }
        }
      ],
      "ERC721NonexistentToken(uint256)": [
        {
          "details": "Indicates a `tokenId` whose `owner` is the zero address.",
          "params": {
            "tokenId": "Identifier number of a token."
          }
        }
      ],
      "ERC721OutOfBoundsIndex(address,uint256)": [
        {
          "details": "An `owner`'s token query was out of bounds for `index`. NOTE: The owner being `address(0)` indicates a global out of bounds index."
        }
      ],
      "EnforcedPause()": [
        {
          "details": "The operation failed because the contract is paused."
        }
      ],
      "ExpectedPause()": [
        {
          "details": "The operation failed because the contract is not paused."
        }
      ],
      "OwnableInvalidOwner(address)": [
        {
          "details": "The owner is not a valid owner account. (eg. `address(0)`)"
        }
      ],
      "OwnableUnauthorizedAccount(address)": [
        {
          "details": "The caller account is not authorized to perform an operation."
        }
      ]
    },
    "events": {
      "Approval(address,address,uint256)": {
        "details": "Emitted when `owner` enables `approved` to manage the `tokenId` token."
      },
      "ApprovalForAll(address,address,bool)": {
        "details": "Emitted when `owner` enables or disables (`approved`) `operator` to manage all of its assets."
      },
      "BatchMetadataUpdate(uint256,uint256)": {
        "details": "This event emits when the metadata of a range of tokens is changed. So that the third-party platforms such as NFT market could timely update the images and related attributes of the NFTs."
      },
      "MetadataUpdate(uint256)": {
        "details": "This event emits when the metadata of a token is changed. So that the third-party platforms such as NFT market could timely update the images and related attributes of the NFT."
      },
      "Paused(address)": {
        "details": "Emitted when the pause is triggered by `account`."
      },
      "Transfer(address,address,uint256)": {
        "details": "Emitted when `tokenId` token is transferred from `from` to `to`."
      },
      "Unpaused(address)": {
        "details": "Emitted when the pause is lifted by `account`."
      }
    },
    "kind": "dev",
    "methods": {
      "approve(address,uint256)": {
        "details": "See {IERC721-approve}."
      },
      "balanceOf(address)": {
        "details": "See {IERC721-balanceOf}."
      },
      "getApproved(uint256)": {
        "details": "See {IERC721-getApproved}."
      },
      "isApprovedForAll(address,address)": {
        "details": "See {IERC721-isApprovedForAll}."
      },
      "name()": {
        "details": "See {IERC721Metadata-name}."
      },
      "owner()": {
        "details": "Returns the address of the current owner."
      },
      "ownerOf(uint256)": {
        "details": "See {IERC721-ownerOf}."
      },
      "paused()": {
        "details": "Returns true if the contract is paused, and false otherwise."
      },
      "renounceOwnership()": {
        "details": "Leaves the contract without owner. It will not be possible to call `onlyOwner` functions. Can only be called by the current owner. NOTE: Renouncing ownership will leave the contract without an owner, thereby disabling any functionality that is only available to the owner."
      },
      "safeTransferFrom(address,address,uint256)": {
        "details": "See {IERC721-safeTransferFrom}."
      },
      "safeTransferFrom(address,address,uint256,bytes)": {
        "details": "See {IERC721-safeTransferFrom}."
      },
      "setApprovalForAll(address,bool)": {
        "details": "See {IERC721-setApprovalForAll}."
      },
      "symbol()": {
        "details": "See {IERC721Metadata-symbol}."
      },
      "tokenByIndex(uint256)": {
        "details": "See {IERC721Enumerable-tokenByIndex}."
      },
      "tokenOfOwnerByIndex(address,uint256)": {
        "details": "See {IERC721Enumerable-tokenOfOwnerByIndex}."
      },
      "totalSupply()": {
        "details": "See {IERC721Enumerable-totalSupply}."
      },
      "transferFrom(address,address,uint256)": {
        "details": "See {IERC721-transferFrom}."
      },
      "transferOwnership(address)": {
        "details": "Transfers ownership of the contract to a new account (`newOwner`). Can only be called by the current owner."
      }
    },
    "version": 1
  },
  "userdoc": {
    "kind": "user",
    "methods": {},
    "version": 1
  }
}