{
  "contractName": "Marketplace",
  "abi": [
    {
      "inputs": [
        {
          "internalType": "contract IERC721",
          "name": "_nft",
          "type": "address"
        },
        {
          "internalType": "uint256",
          "name": "_feePercent",
          "type": "uint256"
        }
      ],
      "stateMutability": "nonpayable",
      "type": "constructor"
    },
    {
      "anonymous": false,
      "inputs": [
        {
          "indexed": false,
          "internalType": "uint256",
          "name": "tokenId",
          "type": "uint256"
        },
        {
          "indexed": false,
          "internalType": "uint256",
          "name": "price",
          "type": "uint256"
        },
        {
          "indexed": true,
          "internalType": "address",
          "name": "seller",
          "type": "address"
        },
        {
          "indexed": true,
          "internalType": "address",
          "name": "buyer",
          "type": "address"
        }
      ],
      "name": "Bought",
      "type": "event"
    },
    {
      "anonymous": false,
      "inputs": [
        {
          "indexed": true,
          "internalType": "address",
          "name": "seller",
          "type": "address"
        },
        {
          "indexed": false,
          "internalType": "uint256",
          "name": "tokenId",
          "type": "uint256"
        }
      ],
      "name": "CancelOffer",
      "type": "event"
    },
    {
      "anonymous": false,
      "inputs": [
        {
          "indexed": false,
          "internalType": "uint256",
          "name": "tokenId",
          "type": "uint256"
        },
        {
          "indexed": false,
          "internalType": "uint256",
          "name": "price",
          "type": "uint256"
        },
        {
          "indexed": true,
          "internalType": "address",
          "name": "seller",
          "type": "address"
        }
      ],
      "name": "Offered",
      "type": "event"
    },
    {
      "anonymous": false,
      "inputs": [
        {
          "indexed": true,
          "internalType": "address",
          "name": "seller",
          "type": "address"
        },
        {
          "indexed": false,
          "internalType": "uint256",
          "name": "tokenId",
          "type": "uint256"
        },
        {
          "indexed": false,
          "internalType": "uint256",
          "name": "newPrice",
          "type": "uint256"
        }
      ],
      "name": "UpdatePrice",
      "type": "event"
    },
    {
      "inputs": [],
      "name": "itemCount",
      "outputs": [
        {
          "internalType": "uint256",
          "name": "",
          "type": "uint256"
        }
      ],
      "stateMutability": "view",
      "type": "function",
      "constant": true
    },
    {
      "inputs": [
        {
          "internalType": "uint256",
          "name": "",
          "type": "uint256"
        }
      ],
      "name": "items",
      "outputs": [
        {
          "internalType": "uint256",
          "name": "tokenId",
          "type": "uint256"
        },
        {
          "internalType": "uint256",
          "name": "price",
          "type": "uint256"
        },
        {
          "internalType": "address payable",
          "name": "seller",
          "type": "address"
        },
        {
          "internalType": "bool",
          "name": "sold",
          "type": "bool"
        }
      ],
      "stateMutability": "view",
      "type": "function",
      "constant": true
    },
    {
      "inputs": [],
      "name": "ownerAddress",
      "outputs": [
        {
          "internalType": "address payable",
          "name": "",
          "type": "address"
        }
      ],
      "stateMutability": "view",
      "type": "function",
      "constant": true
    },
    {
      "inputs": [],
      "name": "tax",
      "outputs": [
        {
          "internalType": "uint256",
          "name": "",
          "type": "uint256"
        }
      ],
      "stateMutability": "view",
      "type": "function",
      "constant": true
    },
    {
      "inputs": [
        {
          "internalType": "uint256",
          "name": "_tokenId",
          "type": "uint256"
        },
        {
          "internalType": "uint256",
          "name": "_price",
          "type": "uint256"
        }
      ],
      "name": "makeItem",
      "outputs": [],
      "stateMutability": "nonpayable",
      "type": "function"
    },
    {
      "inputs": [
        {
          "internalType": "uint256",
          "name": "_tokenId",
          "type": "uint256"
        }
      ],
      "name": "cancelMakeItem",
      "outputs": [],
      "stateMutability": "nonpayable",
      "type": "function"
    },
    {
      "inputs": [
        {
          "internalType": "uint256",
          "name": "_tokenId",
          "type": "uint256"
        },
        {
          "internalType": "uint256",
          "name": "_newPrice",
          "type": "uint256"
        }
      ],
      "name": "updateNewPrice",
      "outputs": [],
      "stateMutability": "nonpayable",
      "type": "function"
    },
    {
      "inputs": [
        {
          "internalType": "uint256",
          "name": "_tokenId",
          "type": "uint256"
        }
      ],
      "name": "purchaseItem",
      "outputs": [],
      "stateMutability": "payable",
      "type": "function",
      "payable": true
    },
    {
      "inputs": [
        {
          "internalType": "uint256",
          "name": "_tokenId",
          "type": "uint256"
        }
      ],
      "name": "getTotalPrice",
      "outputs": [
        {
          "internalType": "uint256",
          "name": "",
          "type": "uint256"
        }
      ],
      "stateMutability": "view",
      "type": "function",
      "constant": true
    },
    {
      "inputs": [
        {
          "internalType": "uint256",
          "name": "_tokenId",
          "type": "uint256"
        }
      ],
      "name": "getItems",
      "outputs": [
        {
          "components": [
            {
              "internalType": "uint256",
              "name": "tokenId",
              "type": "uint256"
            },
            {
              "internalType": "uint256",
              "name": "price",
              "type": "uint256"
            },
            {
              "internalType": "address payable",
              "name": "seller",
              "type": "address"
            },
            {
              "internalType": "bool",
              "name": "sold",
              "type": "bool"
            }
          ],
          "internalType": "struct Marketplace.Item",
          "name": "",
          "type": "tuple"
        }
      ],
      "stateMutability": "view",
      "type": "function",
      "constant": true
    }
  ],
  "bytecode": "0x60c060405234801562000010575f80fd5b50604051620014fa380380620014fa83398181016040528101906200003691906200016a565b3373ffffffffffffffffffffffffffffffffffffffff1660808173ffffffffffffffffffffffffffffffffffffffff16815250508160015f6101000a81548173ffffffffffffffffffffffffffffffffffffffff021916908373ffffffffffffffffffffffffffffffffffffffff1602179055508060a081815250505050620001af565b5f80fd5b5f73ffffffffffffffffffffffffffffffffffffffff82169050919050565b5f620000e982620000be565b9050919050565b5f620000fc82620000dd565b9050919050565b6200010e81620000f0565b811462000119575f80fd5b50565b5f815190506200012c8162000103565b92915050565b5f819050919050565b620001468162000132565b811462000151575f80fd5b50565b5f8151905062000164816200013b565b92915050565b5f8060408385031215620001835762000182620000ba565b5b5f62000192858286016200011c565b9250506020620001a58582860162000154565b9150509250929050565b60805160a05161131b620001df5f395f81816107fa015261087901525f81816107d60152610a3c015261131b5ff3fe608060405260043610610090575f3560e01c80638f84aa09116100585780638f84aa091461017257806399c8d5561461019c578063bfb231d2146101c6578063ca7dd37514610205578063d38ea5bf1461024157610090565b80630a50e3be146100945780632d727af6146100bc5780636bfb0d01146100e457806377e1a35c1461010e578063796c5e9414610136575b5f80fd5b34801561009f575f80fd5b506100ba60048036038101906100b59190610c61565b61025d565b005b3480156100c7575f80fd5b506100e260048036038101906100dd9190610c9f565b610459565b005b3480156100ef575f80fd5b506100f86105fc565b6040516101059190610cd9565b60405180910390f35b348015610119575f80fd5b50610134600480360381019061012f9190610c61565b610601565b005b348015610141575f80fd5b5061015c60048036038101906101579190610c9f565b610726565b6040516101699190610dad565b60405180910390f35b34801561017d575f80fd5b506101866107d4565b6040516101939190610dd5565b60405180910390f35b3480156101a7575f80fd5b506101b06107f8565b6040516101bd9190610cd9565b60405180910390f35b3480156101d1575f80fd5b506101ec60048036038101906101e79190610c9f565b61081c565b6040516101fc9493929190610dfd565b60405180910390f35b348015610210575f80fd5b5061022b60048036038101906102269190610c9f565b610874565b6040516102389190610cd9565b60405180910390f35b61025b60048036038101906102569190610c9f565b6108d4565b005b5f811161029f576040517f08c379a000000000000000000000000000000000000000000000000000000000815260040161029690610e9a565b60405180910390fd5b5f808154809291906102b090610ee5565b919050555060015f9054906101000a900473ffffffffffffffffffffffffffffffffffffffff1673ffffffffffffffffffffffffffffffffffffffff166323b872dd3330856040518463ffffffff1660e01b815260040161031393929190610f4c565b5f604051808303815f87803b15801561032a575f80fd5b505af115801561033c573d5f803e3d5ffd5b5050505060405180608001604052808381526020018281526020013373ffffffffffffffffffffffffffffffffffffffff1681526020015f151581525060025f8481526020019081526020015f205f820151815f0155602082015181600101556040820151816002015f6101000a81548173ffffffffffffffffffffffffffffffffffffffff021916908373ffffffffffffffffffffffffffffffffffffffff16021790555060608201518160020160146101000a81548160ff0219169083151502179055509050503373ffffffffffffffffffffffffffffffffffffffff167f1ab3864560512bcd762f59576711bc5e90d3ef93e9253b43cd6be191b4a5814e838360405161044d929190610f81565b60405180910390a25050565b5f60025f8381526020019081526020015f2060010154116104af576040517f08c379a00000000000000000000000000000000000000000000000000000000081526004016104a690611018565b60405180910390fd5b5f808154809291906104c090611036565b919050555060015f9054906101000a900473ffffffffffffffffffffffffffffffffffffffff1673ffffffffffffffffffffffffffffffffffffffff166323b872dd3033846040518463ffffffff1660e01b815260040161052393929190610f4c565b5f604051808303815f87803b15801561053a575f80fd5b505af115801561054c573d5f803e3d5ffd5b5050505060025f8281526020019081526020015f205f8082015f9055600182015f9055600282015f6101000a81549073ffffffffffffffffffffffffffffffffffffffff02191690556002820160146101000a81549060ff021916905550503373ffffffffffffffffffffffffffffffffffffffff167fdea570bb3f4c454d84d0e1dd20f9c155901284eaaf86e5d61ea837d31629fb47826040516105f19190610cd9565b60405180910390a250565b5f5481565b5f60025f8481526020019081526020015f206001015411610657576040517f08c379a000000000000000000000000000000000000000000000000000000000815260040161064e90611018565b60405180910390fd5b5f8111801561067a575060025f8381526020019081526020015f20600101548114155b6106b9576040517f08c379a00000000000000000000000000000000000000000000000000000000081526004016106b0906110cd565b60405180910390fd5b8060025f8481526020019081526020015f20600101819055503373ffffffffffffffffffffffffffffffffffffffff167f7c3bda8adcb9df1edd0059da351d966538bcc99f067c0770872170ac97fb6887838360405161071a929190610f81565b60405180910390a25050565b61072e610bee565b60025f8381526020019081526020015f206040518060800160405290815f820154815260200160018201548152602001600282015f9054906101000a900473ffffffffffffffffffffffffffffffffffffffff1673ffffffffffffffffffffffffffffffffffffffff1673ffffffffffffffffffffffffffffffffffffffff1681526020016002820160149054906101000a900460ff1615151515815250509050919050565b7f000000000000000000000000000000000000000000000000000000000000000081565b7f000000000000000000000000000000000000000000000000000000000000000081565b6002602052805f5260405f205f91509050805f015490806001015490806002015f9054906101000a900473ffffffffffffffffffffffffffffffffffffffff16908060020160149054906101000a900460ff16905084565b5f60647f000000000000000000000000000000000000000000000000000000000000000060646108a491906110eb565b60025f8581526020019081526020015f20600101546108c3919061111e565b6108cd919061118c565b9050919050565b5f6108de82610874565b90505f60025f8481526020019081526020015f2090505f81600101541161093a576040517f08c379a000000000000000000000000000000000000000000000000000000000815260040161093190611018565b60405180910390fd5b8134101561097d576040517f08c379a00000000000000000000000000000000000000000000000000000000081526004016109749061122c565b60405180910390fd5b8060020160149054906101000a900460ff16156109cf576040517f08c379a00000000000000000000000000000000000000000000000000000000081526004016109c690611294565b60405180910390fd5b806002015f9054906101000a900473ffffffffffffffffffffffffffffffffffffffff1673ffffffffffffffffffffffffffffffffffffffff166108fc826001015490811502906040515f60405180830381858888f19350505050158015610a39573d5f803e3d5ffd5b507f000000000000000000000000000000000000000000000000000000000000000073ffffffffffffffffffffffffffffffffffffffff166108fc826001015484610a8491906112b2565b90811502906040515f60405180830381858888f19350505050158015610aac573d5f803e3d5ffd5b5060018160020160146101000a81548160ff02191690831515021790555060015f9054906101000a900473ffffffffffffffffffffffffffffffffffffffff1673ffffffffffffffffffffffffffffffffffffffff166323b872dd3033845f01546040518463ffffffff1660e01b8152600401610b2b93929190610f4c565b5f604051808303815f87803b158015610b42575f80fd5b505af1158015610b54573d5f803e3d5ffd5b505050503373ffffffffffffffffffffffffffffffffffffffff16816002015f9054906101000a900473ffffffffffffffffffffffffffffffffffffffff1673ffffffffffffffffffffffffffffffffffffffff167f4ebd6ef39c1235e69ba7dedf24ad43bdeb57deb289d98473668070d6ca9b685e835f01548460010154604051610be1929190610f81565b60405180910390a3505050565b60405180608001604052805f81526020015f81526020015f73ffffffffffffffffffffffffffffffffffffffff1681526020015f151581525090565b5f80fd5b5f819050919050565b610c4081610c2e565b8114610c4a575f80fd5b50565b5f81359050610c5b81610c37565b92915050565b5f8060408385031215610c7757610c76610c2a565b5b5f610c8485828601610c4d565b9250506020610c9585828601610c4d565b9150509250929050565b5f60208284031215610cb457610cb3610c2a565b5b5f610cc184828501610c4d565b91505092915050565b610cd381610c2e565b82525050565b5f602082019050610cec5f830184610cca565b92915050565b610cfb81610c2e565b82525050565b5f73ffffffffffffffffffffffffffffffffffffffff82169050919050565b5f610d2a82610d01565b9050919050565b610d3a81610d20565b82525050565b5f8115159050919050565b610d5481610d40565b82525050565b608082015f820151610d6e5f850182610cf2565b506020820151610d816020850182610cf2565b506040820151610d946040850182610d31565b506060820151610da76060850182610d4b565b50505050565b5f608082019050610dc05f830184610d5a565b92915050565b610dcf81610d20565b82525050565b5f602082019050610de85f830184610dc6565b92915050565b610df781610d40565b82525050565b5f608082019050610e105f830187610cca565b610e1d6020830186610cca565b610e2a6040830185610dc6565b610e376060830184610dee565b95945050505050565b5f82825260208201905092915050565b7f5072696365206d7573742062652067726561746572207468616e207a65726f005f82015250565b5f610e84601f83610e40565b9150610e8f82610e50565b602082019050919050565b5f6020820190508181035f830152610eb181610e78565b9050919050565b7f4e487b71000000000000000000000000000000000000000000000000000000005f52601160045260245ffd5b5f610eef82610c2e565b91507fffffffffffffffffffffffffffffffffffffffffffffffffffffffffffffffff8203610f2157610f20610eb8565b5b600182019050919050565b5f610f3682610d01565b9050919050565b610f4681610f2c565b82525050565b5f606082019050610f5f5f830186610f3d565b610f6c6020830185610f3d565b610f796040830184610cca565b949350505050565b5f604082019050610f945f830185610cca565b610fa16020830184610cca565b9392505050565b7f4974656d20646f6573206e6f74206578697374206f6e206d61726b6574706c615f8201527f6365000000000000000000000000000000000000000000000000000000000000602082015250565b5f611002602283610e40565b915061100d82610fa8565b604082019050919050565b5f6020820190508181035f83015261102f81610ff6565b9050919050565b5f61104082610c2e565b91505f820361105257611051610eb8565b5b600182039050919050565b7f4e6577207072696365206d7573742067726561746572207468616e203020616e5f8201527f6420646966666572656e742066726f6d206f6c64207072696365000000000000602082015250565b5f6110b7603a83610e40565b91506110c28261105d565b604082019050919050565b5f6020820190508181035f8301526110e4816110ab565b9050919050565b5f6110f582610c2e565b915061110083610c2e565b925082820190508082111561111857611117610eb8565b5b92915050565b5f61112882610c2e565b915061113383610c2e565b925082820261114181610c2e565b9150828204841483151761115857611157610eb8565b5b5092915050565b7f4e487b71000000000000000000000000000000000000000000000000000000005f52601260045260245ffd5b5f61119682610c2e565b91506111a183610c2e565b9250826111b1576111b061115f565b5b828204905092915050565b7f4e6f7420656e6f75676820657468657220746f20636f766572206974656d20705f8201527f7269636520616e64206d61726b65742066656500000000000000000000000000602082015250565b5f611216603383610e40565b9150611221826111bc565b604082019050919050565b5f6020820190508181035f8301526112438161120a565b9050919050565b7f4974656d20616c726561647920736f6c640000000000000000000000000000005f82015250565b5f61127e601183610e40565b91506112898261124a565b602082019050919050565b5f6020820190508181035f8301526112ab81611272565b9050919050565b5f6112bc82610c2e565b91506112c783610c2e565b92508282039050818111156112df576112de610eb8565b5b9291505056fea2646970667358221220155adccbf49e214e78aa539cdef4f8574002b7abd3d29181d95ab7a037c9736764736f6c63430008150033",
  "immutableReferences": {
    "3868": [
      {
        "length": 32,
        "start": 2006
      },
      {
        "length": 32,
        "start": 2620
      }
    ],
    "3870": [
      {
        "length": 32,
        "start": 2042
      },
      {
        "length": 32,
        "start": 2169
      }
    ]
  },
  "source": "// SPDX-License-Identifier: MIT\r\npragma solidity ^0.8.20;\r\n\r\nimport \"@openzeppelin/contracts/token/ERC721/IERC721.sol\";\r\n\r\ncontract Marketplace {\r\n\r\n    // Variables\r\n    address payable public immutable ownerAddress; // the account that receives fees\r\n    uint public immutable tax; // the fee percentage on sales \r\n    uint public itemCount; \r\n    \r\n    IERC721 nft;\r\n    \r\n    struct Item {\r\n        uint256 tokenId;\r\n        uint256 price;\r\n        address payable seller;\r\n        bool sold;\r\n    }\r\n\r\n    // tokenId -> Item\r\n    mapping(uint256 => Item) public items;\r\n\r\n    event Offered(uint256 tokenId, uint256 price, address indexed seller);\r\n    event Bought(uint256 tokenId, uint256 price, address indexed seller, address indexed buyer);\r\n    event CancelOffer(address indexed seller, uint256 tokenId);\r\n    event UpdatePrice(address indexed seller, uint256 tokenId, uint256 newPrice);\r\n\r\n    constructor(IERC721 _nft, uint256 _feePercent) {\r\n        ownerAddress = payable(msg.sender);\r\n        nft = _nft;\r\n        tax = _feePercent;\r\n    }\r\n\r\n    // Make item to offer on the marketplace\r\n    function makeItem(uint256 _tokenId, uint256 _price) external{\r\n        require(_price > 0, \"Price must be greater than zero\");\r\n        itemCount++;\r\n        // transfer nft from seller account to this smart contract\r\n        nft.transferFrom(msg.sender, address(this), _tokenId);\r\n        // add new item to items mapping\r\n        items[_tokenId] = Item (_tokenId, _price, payable(msg.sender), false);\r\n        // emit Offered event\r\n        emit Offered(_tokenId, _price, msg.sender);\r\n    }\r\n\r\n    // Cancel make item to offer on the marketplace\r\n    function cancelMakeItem(uint256 _tokenId) external {\r\n        require(items[_tokenId].price > 0, \"Item does not exist on marketplace\");\r\n        itemCount--;\r\n        // transfer nft from this smart contract to seller account\r\n        nft.transferFrom(address(this), msg.sender, _tokenId);\r\n        // delete nft in items mapping\r\n        delete(items[_tokenId]);\r\n        // emit Cancel Offer event\r\n        emit CancelOffer(msg.sender, _tokenId);\r\n    }\r\n\r\n    // Update new price for item\r\n    function updateNewPrice(uint256 _tokenId, uint256 _newPrice) external {\r\n        require(items[_tokenId].price > 0, \"Item does not exist on marketplace\");\r\n        require(_newPrice > 0 && _newPrice != items[_tokenId].price, \"New price must greater than 0 and different from old price\");\r\n\r\n        items[_tokenId].price = _newPrice;\r\n        emit UpdatePrice(msg.sender, _tokenId, _newPrice);\r\n    }\r\n\r\n    // Buy item\r\n    function purchaseItem(uint256 _tokenId) external payable{\r\n        uint256 _totalPrice = getTotalPrice(_tokenId);\r\n        Item storage item = items[_tokenId];\r\n        require(item.price > 0, \"Item does not exist on marketplace\");\r\n        require(msg.value >= _totalPrice, \"Not enough ether to cover item price and market fee\");\r\n        require(!item.sold, \"Item already sold\");\r\n        // pay seller and feeAccount\r\n        item.seller.transfer(item.price);\r\n        ownerAddress.transfer(_totalPrice - item.price);\r\n        // update item to sold\r\n        item.sold = true;\r\n        // transfer nft to buyer\r\n        nft.transferFrom(address(this), msg.sender, item.tokenId);\r\n        // emit Bought event\r\n        emit Bought(item.tokenId, item.price, item.seller, msg.sender);\r\n    }\r\n\r\n    // Get price include tax\r\n    function getTotalPrice(uint256 _tokenId) view public returns(uint256){\r\n        return((items[_tokenId].price*(100 + tax))/100);\r\n    }\r\n\r\n    // Get information of item have token ID: _tokenId   - Next to change - 18/12/2023\r\n    function getItems(uint256 _tokenId)external view returns (Item memory){\r\n        return items[_tokenId];\r\n    }\r\n}\r\n",
  "sourcePath": "S:\\StudyCode\\Blockchain\\FinalProject\\NFT-Market-Place\\nft-marketplace\\src\\SmartContract\\contracts\\Marketplace.sol",
  "compiler": {
    "name": "solc",
    "version": "0.8.21+commit.d9974bed.Emscripten.clang"
  },
  "schemaVersion": "3.4.16",
  "updatedAt": "2024-01-12T07:20:56.478Z",
  "networkType": "ethereum",
  "devdoc": {
    "kind": "dev",
    "methods": {},
    "version": 1
  },
  "userdoc": {
    "kind": "user",
    "methods": {},
    "version": 1
  }
}